:100000000C9466000C948E000C948E000C948E0060
:100010000C948E000C948E000C948E000C948E0028
:100020000C948E000C948E000C948E000C948E0018
:100030000C948E000C948E000C948E000C948E0008
:100040000C94DE060C948E000C9494090C94C60952
:100050000C948E000C948E000C948E000C948E00E8
:100060000C94B1050C948E00000000080002010001
:100070000003040700000000000000000102040863
:100080001020408001020408102001020408102002
:10009000040404040404040402020202020203032E
:1000A00003030303000000002300260029000000D2
:1000B0000000250028002B0000000000240027007D
:1000C0002A002501FE01DA031305F60911241FBEDB
:1000D000CFEFD8E0DEBFCDBF11E0A0E0B1E0EEE4AD
:1000E000F6E102C005900D92AE35B107D9F724E0D4
:1000F000AEE5B1E001C01D92A530B207E1F710E016
:10010000CCECD0E004C02297FE010E94020BC23C5E
:10011000D107C9F70E943A0A0C94250B0C940000F1
:10012000FF920F931F93CF93DF9300D01F92CDB711
:10013000DEB78C01FC0183818E38C1F188F48C38E4
:1001400029F18D3809F04CC06EE071E088E693E04B
:100150000E94870A88E693E00E94900A60E021C02E
:10016000803999F18239E1F5F801F48065818F2DAC
:100170000E946701F9829A838B83AE014F5F5F4FC4
:1001800062E98EE591E00E94D0012AC061E071E051
:1001900088E693E00E94870A88E693E00E94900A2E
:1001A00061E0F80184810E9444011AC06AE171E0B3
:1001B00088E693E00E94870A88E693E00E94900A0E
:1001C000F80184810E944B010BC0F801F480158175
:1001D000612F8F2D0E946001612F8F2D0E940901D8
:1001E0000F900F900F90DF91CF911F910F91FF9083
:1001F0000895682F70E088E991E00C943302462F4F
:10020000682F70E088E991E00C94360286530C94D4
:10021000F90086530C94FF0008950C9490008EE52D
:1002200091E00E946E016DE071E08EE591E00E9428
:1002300084016CE071E08DE992E00E940E050C945F
:1002400029018EE591E00C9402028EE591E00C9478
:100250006D011F93CF93DF93C0E6D1E010E0812FB3
:100260000E94060191E08F3F09F490E09993992351
:1002700021F061E0812F0E94B5071F5F143179F7EB
:10028000DF91CF911F910895E82FF0E0E05AFE4FE3
:1002900060830C94EE07CF93DF93C82FD0E0C05A51
:1002A000DE4F61E09881911160E068830E94EE0763
:1002B00081E09881911101C080E0DF91CF91089594
:1002C000613011F460E001C061E00C94B507611188
:1002D00002C00C946F070C942408089526E040E0B7
:1002E00052EC61E070E088E693E00E94320969E236
:1002F00071E088E693E00E94A40A4AE06DE972E0AA
:1003000085E991E00C944802FC01718360830895B3
:10031000CF93DF93CDB7DEB768970FB6F894DEBF03
:100320000FBECDBF209175012A3061F145E751E044
:1003300065E971E0CE0101960E947F038DB79EB7FB
:1003400048970FB6F8949EBF0FBE8DBFADB7BEB72E
:10035000119688E1FE01319601900D928A95E1F7A0
:1003600085E991E00E9475020FB6F894DEBF0FBEDA
:10037000CDBF68960FB6F894DEBF0FBECDBFDF913C
:10038000CF910895DC01ED91FC9185E791E06896AD
:100390000FB6F894DEBF0FBECDBFDF91CF910994A9
:1003A0000F93CF93DF93CDB7DEB727970FB6F894AF
:1003B000DEBF0FBECDBF9A010AE0AE014F5F5F4FB7
:1003C00067E085E991E00E944303E0916803F091C2
:1003D00069030280F381E02D47E050E0BE016F5FCA
:1003E0007F4F88E693E0099527960FB6F894DEBF15
:1003F0000FBECDBFDF91CF910F91089585E991E0B8
:100400000C943A020F931F93CF93DF93EC0188E68D
:1004100093E00E944D08892BF1F00091740110E0E7
:1004200088E693E00E946808F801EB58FE4F80834D
:1004300080917401E82FF0E0EB58FE4F90819E37D9
:1004400031F410927401CE010E94880104C08F5FC4
:1004500080937401DCCF85E991E0DF91CF911F910A
:100460000F910C94A902CB010C940F0BCB01642FBC
:100470000C94170BFC01128211820895FC01728307
:100480006183CB010E94E4048CE08093B80008955E
:10049000FC0140830C943E02CF93DF93CDB7DEB7CF
:1004A0004D8D5E8D60E070E08BE892E00E94E90384
:1004B0008BE892E00E9436048823A1F080919A0193
:1004C00098E1989FD0011124A556BE4FFE013596A4
:1004D00001900D929A95E1F78F5F80939A0181E0E8
:1004E00080939901DF91CF910895CF93DF93CDB79A
:1004F000DEB71F921F922DB73EB7285131090FB6B4
:10050000F8943EBF0FBE2DBFADB7BEB7119628E120
:10051000FE01359601900D922A95E1F70E944C025A
:100520000FB6F894DEBF0FBECDBFDF91CF91089517
:100530000F931F9342274627842F402FF8013E2F09
:10054000341B321718F431918327F9CF1F910F9183
:100550000895CF92DF92EF92FF920F931F93CF9364
:10056000DF93CDB7DEB768970FB6F894DEBF0FBE46
:10057000CDBF7C0184E992E00E943604882309F40F
:1005800073C080919901882309F46EC088E1EBE97A
:10059000F1E0DE01119601900D928A95E1F78091CC
:1005A0009A01815080939A01811102C010929901A1
:1005B00083EB91E028E1DC015897FC01322F019098
:1005C0000D923A95E1F7489632E08B38930799F708
:1005D0006981D70111968D919C9112970E94EE042A
:1005E000F70181819281DC01ED91FC910190F08114
:1005F000E02D6A810995F70181819281DC01ED91FD
:10060000FC910190F081E02D6B81099510E02B8128
:10061000F701C180D280121788F4D601ED91FC91C8
:10062000A4E0B0E0AC0FBD1FA10FB11D0190F0819F
:10063000E02D6C91C60109951F5FE9CF8E010C5F1B
:100640001F4F49816A81C7010E949802D601ED912E
:10065000FC910190F081E02D682FC6010995F7010A
:10066000818192810E940B0568960FB6F894DEBFD7
:100670000FBECDBFDF91CF911F910F91FF90EF90F3
:10068000DF90CF900895CF92DF92EF92FF920F9379
:100690001F93CF93DF93FA01502F4EE740830183DE
:1006A00002837BEF760F738340E0062F10E0780122
:1006B00065E0E61AF108A42FB0E0AE15BF055CF4C2
:1006C0006901CA0EDB1EE6016881AE0FBF1F1496DA
:1006D0006C934F5FF0CFE8012197CE0FDF1F8901A8
:1006E000272F452F652F0E9498028883DF91CF9195
:1006F0001F910F91FF90EF90DF90CF9008958F9210
:100700009F92AF92BF92CF92DF92EF92FF920F93A0
:100710001F93CF93DF931F92CDB7DEB77C015B01B0
:10072000FA01CDB6DEB68080DC018C929180119604
:100730009C921197228112962C93422F50E08DB7F4
:100740009EB7841B950B0FB6F8949EBF0FBE8DBF4E
:100750000DB71EB70F5F1F4FDF011396902FF801E3
:100760008E2F891B821718F48D918193F9CFB801D0
:10077000C701039629830E94060B2981482D692D04
:10078000C5010E949802D70157968C93C7010FB6F6
:10079000F894DEBE0FBECDBE0F90DF91CF911F91BA
:1007A0000F91FF90EF90DF90CF90BF90AF909F9010
:1007B0008F90089542E350E060E070E084E992E0B9
:1007C0000E94450440E050E0BA018BE892E00C94AE
:1007D0004504FC0145835683678370870895BF9263
:1007E000CF92DF92EF92FF920F931F93CF93DF93FD
:1007F000EC01B62E0E942807C980DA80EB80FC80CD
:100800000D811E812F8138856C197D098E099F0904
:100810006017710782079307E0F0BB20E1F0011534
:1008200011052105310519F08881882339F00E94CE
:10083000280769837A838B839C830DC0B901A80143
:100840004C0D5D1D6E1D7F1D49835A836B837C8318
:1008500002C080E001C081E0DF91CF911F910F9134
:10086000FF90EF90DF90CF90BF90089561E00C94DF
:10087000EF03CF93DF93EC010E94280769837A830B
:100880008B839C83DF91CF910895FC011082458377
:100890005683678370870C9439048091CF0290E06F
:1008A0002091D002821B910908952091D00280915D
:1008B000CF02281750F4E22FF0E0EF52FD4F808175
:1008C00090E02F5F2093D00208958FEF9FEF08955F
:1008D000E091D0028091CF02E81730F4F0E0EF52BF
:1008E000FD4F808190E008958FEF9FEF0895089568
:1008F000CF92DF92EF92FF920F931F93CF93DF93EC
:100900007C01CB018A012091AB02222389F0EB010B
:100910006B01C40ED51ECC15DD0569F06991D701B8
:10092000ED91FC910190F081E02DC7010995F3CF85
:10093000642F0E948805C801DF91CF911F910F910C
:10094000FF90EF90DF90CF900895CF93DF931F92A9
:10095000CDB7DEB769832091AB022223D1F020917D
:10096000AC02203240F021E030E0FC0133832283EE
:1009700080E090E015C08091AD02E82FF0E0E255F4
:10098000FD4F998190838F5F8093AD028093AC027D
:1009900005C061E0CE0101960E94880581E090E0EB
:1009A0000F90DF91CF910895FC011382128248EEDF
:1009B00053E060E070E0448355836683778381E48D
:1009C00091E09183808308951092D0021092CF021B
:1009D0001092AD021092AC020C94170581E0809346
:1009E000AB026093CE021092AD021092AC02089559
:1009F0000F93062F21E04091AC026EEA72E08091E5
:100A0000CE020E9435051092AD021092AC021092F7
:100A1000AB020F91089561E00C94F8047093AA0260
:100A20006093A90208958DE992E00C94D404109289
:100A30005E0381E080935C0310925B0361E082E1DE
:100A40000E94EE0761E083E10E94EE07E9EBF0E02F
:100A500080818E7F808380818D7F808388E48093F6
:100A6000B80085E48093BC0008950F93413208F0EC
:100A700046C090915E039111FCCF92E090935E038B
:100A800000935C039FEF9093F10210923603409322
:100A90003503FB0167E373E0DB019A2F961B941784
:100AA00018F491919D93F9CF10925D0390915D039D
:100AB000880F892B80935D0380915B03813041F423
:100AC00010925B0380915D038093BB0085EC01C0B5
:100AD00085EE8093BC00222321F080915E0382305A
:100AE000E1F38091F1028F3F61F08091F102803259
:100AF00051F08091F102803341F483E007C081E03E
:100B000005C080E003C082E001C084E00F91089539
:100B1000613298F420915E03243089F460931303CA
:100B2000FC0185E193E0DC012A2F281B261718F42D
:100B300021912D93F9CF80E0089581E0089582E01E
:100B4000089585ED8093BC008091BC0084FDFCCFAE
:100B500010925E03089585EC8093BC0010925E03B2
:100B600008951F920F920FB60F9211242F933F9367
:100B70004F935F936F937F938F939F93AF93BF93A5
:100B8000EF93FF938091B900887F803609F49CC071
:100B900068F5883209F45BC090F4803109F454C0E0
:100BA00038F4882309F4F5C0883009F44DC0F5C045
:100BB000883109F44CC0803209F45DC0EEC0803445
:100BC00009F468C048F4803309F455C0883309F04B
:100BD000E4C08093F102A8C0803509F44FC0883585
:100BE00009F45DC0883409F0D8C0D5C0883909F44B
:100BF000C6C0A8F4883709F467C038F4883609F409
:100C000063C0803709F460C0C8C0883809F4B7C031
:100C1000803909F45FC0803809F0BFC05BC0803BF9
:100C200009F485C038F4803A09F466C0883A09F4BA
:100C30007EC0B3C0803C09F4A6C0883C09F4A3C0C0
:100C4000883B09F489C0A9C080915D0310C09091D0
:100C5000360380913503981770F5E091360381E0F3
:100C60008E0F80933603F0E0E95CFC4F8081809327
:100C7000BB0085EC85C08093F1028DC0E091360306
:100C800081E08E0F809336038091BB00F0E0E95C39
:100C9000FC4F808390913603809135036DC0E091C5
:100CA000360381E08E0F809336038091BB00F0E025
:100CB000E95CFC4F808380915C0381116CC081E012
:100CC00080935B0384EA60C083E080935E031092AC
:100CD000F202CFCF8091F202803208F050C0E09152
:100CE000F20281E08E0F8093F2028091BB00F0E06F
:100CF000ED50FD4F8083BDCF8091F202803230F401
:100D0000E091F202F0E0ED50FD4F10820E94A1054B
:100D10006091F20270E0E0915703F091580383EF85
:100D200092E009951092F2020E94AB0536C084E071
:100D300080935E031092140310921303E091590301
:100D4000F0915A03099580911303811105C081E048
:100D50008093130310921503E091140381E08E0F2A
:100D600080931403F0E0EB5EFC4F80818093BB0026
:100D70009091140380911303981708F47ACF85E8B3
:100D80008093BC000AC085EC8093BC0010925E0387
:100D900004C01092F1020E94A105FF91EF91BF9152
:100DA000AF919F918F917F916F915F914F913F9103
:100DB0002F910F900FBE0F901F9018951F920F92BA
:100DC0000FB60F9211242F933F938F939F93AF935E
:100DD000BF938091600390916103A0916203B091F1
:100DE000630330915F0323E0230F2D3720F4019636
:100DF000A11DB11D05C026E8230F0296A11DB11D3E
:100E000020935F038093600390936103A093620338
:100E1000B09363038091640390916503A09166038E
:100E2000B09167030196A11DB11D80936403909357
:100E30006503A0936603B0936703BF91AF919F9141
:100E40008F913F912F910F900FBE0F901F9018958B
:100E50002FB7F894609160037091610380916203F1
:100E6000909163032FBF0895789484B5826084BD08
:100E700084B5816084BD85B5826085BD85B581609E
:100E800085BDEEE6F0E0808181608083E1E8F0E0FE
:100E90001082808182608083808181608083E0E82D
:100EA000F0E0808181608083E1EBF0E0808184600C
:100EB0008083E0EBF0E0808181608083EAE7F0E00E
:100EC0008081846080838081826080838081816072
:100ED00080838081806880831092C10008958E3065
:100EE00008F08E5087702091000190E4299F9001B6
:100EF0001124822B80937C0080917A0080648093FF
:100F00007A0080917A0086FDFCCF80917800209154
:100F1000790090E0922B0895833081F028F481309D
:100F200099F08230A1F008958730A9F08830B9F0A7
:100F30008430D1F4809180008F7D03C08091800047
:100F40008F7780938000089584B58F7702C084B531
:100F50008F7D84BD08958091B0008F7703C080910C
:100F6000B0008F7D8093B0000895CF93DF9390E021
:100F7000FC01E458FF4F2491FC01E057FF4F84919E
:100F8000882349F190E0880F991FFC01E854FF4F36
:100F9000A591B49182559F4FFC01C591D4919FB703
:100FA000611108C0F8948C91209582238C938881DC
:100FB00082230AC0623051F4F8948C91322F30951C
:100FC00083238C938881822B888304C0F8948C912E
:100FD000822B8C939FBFDF91CF9108950F931F9326
:100FE000CF93DF931F92CDB7DEB7282F30E0F90102
:100FF000E859FF4F8491F901E458FF4F1491F9012A
:10100000E057FF4F04910023C9F0882321F0698342
:101010000E948C076981E02FF0E0EE0FFF1FE25580
:10102000FF4FA591B4919FB7F8948C91611103C0C3
:101030001095812301C0812B8C939FBF0F90DF916E
:10104000CF911F910F910895CF93DF93282F30E018
:10105000F901E859FF4F8491F901E458FF4FD49109
:10106000F901E057FF4FC491CC2391F081110E9408
:101070008C07EC2FF0E0EE0FFF1FEC55FF4FA59112
:10108000B4912C912D2381E090E021F480E002C006
:1010900080E090E0DF91CF910895FC01818D228D59
:1010A00090E0805C9F4F821B910960E470E00E9499
:1010B000B60A0895FC01918D828D981731F0828DCA
:1010C000E80FF11D858D90E008958FEF9FEF089553
:1010D000FC01918D828D981761F0828DDF01A80F40
:1010E000B11D5D968C91928D9F5F9F73928F90E062
:1010F00008958FEF9FEF08958CEE99E0892B49F0CA
:1011000080E090E0892B29F00E94EC0981110C9479
:1011100000000895FC01848DDF01A80FB11DA35AC2
:10112000BF4F2C91848D90E001968F739927848F07
:10113000A689B7892C93A089B1898C9180648C93FE
:10114000938D848D981306C00288F389E02D8081E9
:101150008F7D80830895CF93DF93EC01888D882362
:10116000C9F0EA89FB89808185FD05C0A889B98914
:101170008C9186FD0FC00FB607FCF5CF808185FFEF
:10118000F2CFA889B9898C9185FFEDCFCE010E945D
:101190008A08E7CFDF91CF910895CF92DF92FF9237
:1011A0000F931F93CF93DF931F92CDB7DEB76C01E0
:1011B000DC015B969C915B975C968C915C97981395
:1011C00007C05096ED91FC915197808185FD32C00A
:1011D000F601038D10E00F5F1F4F0F731127F02EE4
:1011E000F601848DF81211C00FB607FCF9CFD601B5
:1011F0005096ED91FC915197808185FFF1CFC6010A
:1012000069830E948A086981EBCF838DE80FF11D05
:10121000E35AFF4F6083D6015B960C935B9752961F
:10122000ED91FC91539780818062808381E0589694
:101230008C930DC0D6015696ED91FC915797608323
:101240005096ED91FC91519780818064808381E07C
:1012500090E00F90DF91CF911F910F91FF90DF9061
:10126000CF900895BF92CF92DF92EF92FF92CF93EB
:10127000DF93EC016A017B01B22EE889F98982E0F3
:101280008083411581EE580761057105A1F060E08A
:1012900079E08DE390E0A70196010E94CA0A2150EF
:1012A00031094109510956954795379527952115DB
:1012B00080E1380798F0E889F989108260E874E8DD
:1012C0008EE190E0A70196010E94CA0A21503109DF
:1012D000410951095695479537952795EC85FD8528
:1012E0003083EE85FF852083188EEC89FD89B082DE
:1012F000EA89FB89808180618083EA89FB8980811A
:1013000088608083EA89FB89808180688083EA899C
:10131000FB8980818F7D8083DF91CF91FF90EF905B
:10132000DF90CF90BF9008951F920F920FB60F924B
:1013300011242F938F939F93EF93FF93E091780362
:10134000F09179038081E0917E03F0917F0382FD2B
:1013500012C09081809181038F5F8F7320918203EF
:10136000821751F0E0918103F0E0E859FC4F958F2E
:101370008093810301C08081FF91EF919F918F91B4
:101380002F910F900FBE0F901F9018951F920F92E4
:101390000FB60F9211242F933F934F935F936F9348
:1013A0007F938F939F93AF93BF93EF93FF9388E6C1
:1013B00093E00E948A08FF91EF91BF91AF919F91B6
:1013C0008F917F916F915F914F913F912F910F90EE
:1013D0000FBE0F901F90189588E693E00E944D086D
:1013E00021E0892B09F420E0822F089510926B03ED
:1013F00010926A0388EE93E0A0E0B0E080936C0363
:1014000090936D03A0936E03B0936F0381E591E019
:10141000909369038093680385EC90E09093750343
:101420008093740384EC90E0909377038093760329
:1014300080EC90E0909379038093780381EC90E0C6
:1014400090937B0380937A0382EC90E090937D03EA
:1014500080937C0386EC90E090937F0380937E03DF
:1014600010928103109282031092830310928403DE
:10147000089508950E9434070E94390A0E940F01BE
:10148000CCE7D8E00E9421012097E1F30E947C087C
:10149000F9CFCF92DF92EF92FF920F931F93CF93EA
:1014A000DF936C017A01EB01E60EF71E00E010E01D
:1014B000CE15DF0561F06991D601ED91FC910190A7
:1014C000F081E02DC6010995080F191FF1CFC80161
:1014D000DF91CF911F910F91FF90EF90DF90CF9010
:1014E00008956115710581F0DB010D900020E9F789
:1014F000AD0141505109461B570BDC01ED91FC91A8
:101500000280F381E02D099480E090E008950C942E
:10151000710ADC01ED91FC910190F081E02D0994BC
:101520000F931F93CF93DF93EC016DE00E94890A24
:101530008C016AE0CE010E94890A800F911FDF9121
:10154000CF911F910F9108950F931F93CF93DF9326
:10155000EC010E94710A8C01CE010E94900A800F5A
:10156000911FDF91CF911F910F91089597FB072E47
:1015700016F4009407D077FD09D00E94EC0A07FC0E
:1015800005D03EF4909581959F4F08957095619593
:101590007F4F0895A1E21A2EAA1BBB1BFD010DC0AF
:1015A000AA1FBB1FEE1FFF1FA217B307E407F50713
:1015B00020F0A21BB30BE40BF50B661F771F881FEF
:1015C000991F1A9469F760957095809590959B0185
:1015D000AC01BD01CF010895AA1BBB1B51E107C09F
:1015E000AA1FBB1FA617B70710F0A61BB70B881FB3
:1015F000991F5A95A9F780959095BC01CD01089542
:10160000EE0FFF1F0590F491E02D0994FB01DC0122
:1016100002C001900D9241505040D8F70895F999B9
:10162000FECF92BD81BDF89A992780B50895262FE7
:10163000F999FECF1FBA92BD81BD20BD0FB6F894B7
:0E164000FA9AF99A0FBE01960895F894FFCF1A
:10164E0001476F742070696E206869676800676F64
:10165E00742070696E206C6F7700676F74207069EC
:10166E006E20746F67676C6500426567696E2073E4
:10167E006574757020666F7220556E6F00000000E5
:10168E0000A50478044D0455046804770400000096
:0E169E0000CD08490A4D0868085A08AB08003C
:00000001FF
